:100000000C9453000C947B000C947B000C947B00AC
:100010000C947B000C947B000C947B000C947B0074
:100020000C947B000C947B000C947B000C947B0064
:100030000C947B000C947B000C947B000C947B0054
:100040000C94FB020C947B000C946B030C94450302
:100050000C947B000C947B000C947B000C947B0034
:100060000C947B000C947B0000000000250028000D
:100070002B0000000000240027002A0004040404D0
:100080000404040402020202020203030303030342
:10009000010204081020408001020408102001021F
:1000A000040810209D0311241FBECFEFD8E0DEBF4F
:1000B000CDBF11E0A0E0B1E0E0EFFEE002C00590AE
:1000C0000D92AA3CB107D9F722E0AAECB1E001C039
:1000D0001D92A738B207E1F710E0C3E5D0E004C0F5
:1000E0002197FE010E949804C235D107C9F70E94EA
:1000F000D0030C9476070C940000CF93DF9390E02C
:10010000FC01E057FF4F249184589F4FFC018491DC
:100110008823D1F090E0880F991FFC01EE58FF4F23
:10012000A591B491FC01E859FF4FC591D49161119B
:100130000EC09FB7F8948C91E22FE0958E238C939C
:100140002881E223E8839FBFDF91CF9108958FB785
:10015000F894EC91E22BEC938FBFF6CFAF92BF9265
:10016000CF92DF92EF92FF920F931F93CF93DF9383
:100170006C017B018B01040F151FEB015E01AE18B2
:10018000BF08C017D10759F06991D601ED91FC91D4
:100190000190F081E02DC6010995892B79F7C50101
:1001A000DF91CF911F910F91FF90EF90DF90CF9053
:1001B000BF90AF900895FC01538D448D252F30E002
:1001C000842F90E0821B930B541710F0CF96089564
:1001D00001970895FC01918D828D981761F0A28D91
:1001E000AE0FBF2FB11D5D968C91928D9F5F9F7357
:1001F000928F90E008958FEF9FEF0895FC01918D0D
:10020000828D981731F0828DE80FF11D858D90E079
:1002100008958FEF9FEF0895FC01918D228D892F16
:1002200090E0805C9F4F821B91098F7399270895FE
:1002300083ED91E00E940C0121E0892B09F420E07C
:10024000822F089580E090E0892B29F00E94180108
:1002500081110C9400000895FC01A48DA80FB92F02
:10026000B11DA35ABF4F2C91848D90E001968F73DE
:100270009927848FA689B7892C93A089B1898C91FD
:10028000837080648C93938D848D981306C002884C
:10029000F389E02D80818F7D80830895EF92FF9216
:1002A0000F931F93CF93DF93EC0181E0888F9B8D99
:1002B0008C8D98131AC0E889F989808185FF15C053
:1002C0009FB7F894EE89FF896083E889F989808176
:1002D0008370806480839FBF81E090E0DF91CF9145
:1002E0001F910F91FF90EF900895F62E0B8D10E067
:1002F0000F5F1F4F0F731127E02E8C8D8E110CC0D6
:100300000FB607FCFACFE889F989808185FFF5CF20
:10031000CE010E942C01F1CFEB8DEC0FFD2FF11DD2
:10032000E35AFF4FF0829FB7F8940B8FEA89FB895D
:1003300080818062CFCFCF93DF93EC01888D8823BB
:10034000B9F0AA89BB89E889F9898C9185FD03C038
:10035000808186FD0DC00FB607FCF7CF8C9185FF1D
:10036000F2CF808185FFEDCFCE010E942C01E9CF35
:10037000DF91CF910895FC0101900020E9F73197BA
:10038000AF01481B590BBC0183ED91E00C94AE000A
:10039000CF93DF930E94BB01EC0182E191E00E94C8
:1003A000BB018C0F9D1FDF91CF910895CF92DF92FB
:1003B000EF92FF920F931F93CF93DF93CDB7DEB7EA
:1003C000A1970FB6F894DEBF0FBECDBF282F30E047
:1003D00050E040E019A28E010F5D1F4F8AE0C82E49
:1003E000D12CE12CF12CCA01B901A70196010E9480
:1003F0007604605DF80162938F0121153105410596
:10040000510589F73097C9F0CF010E94BB018C01DB
:1004100082E191E00E94BB01800F911FA1960FB66F
:10042000F894DEBF0FBECDBFDF91CF911F910F912A
:10043000FF90EF90DF90CF90089510E000E0E8CFBC
:10044000CF93DF93CDB7DEB7C058D2400FB6F89444
:10045000DEBF0FBECDBF609073028E010F5F1F4FD6
:1004600080E092E0D801FC011D923197E9F790E01D
:1004700080E02FEF7E01FFEFEF1AFDEFFF0A31E979
:10048000832E31E0932E79B07620721629F0F80190
:10049000E80FF91F70820196811522E0920709F09A
:1004A000A5C084E291E00E94C80180E391E00E942F
:1004B000BB01809174020E94D60188E391E00E9402
:1004C000BB01809178020E94D60181E491E00E94F4
:1004D000BB01809175020E94D60189E491E00E94DF
:1004E000BB01809179020E94D60182E591E00E94D1
:1004F000BB01809176020E94D6018AE591E00E94BC
:10050000BB0180917A020E94D60183E691E00E94AD
:10051000BB01809177020E94D6018BE691E00E9498
:10052000BB0180917B020E94D60184E791E00E948A
:10053000BB01809173020E94D6018FE791E00E9477
:10054000C80158016801D601ED916D0180917B02CF
:100550008E2368E171E011F065E171E0809179022C
:100560008E2348E151E011F04BE151E080917A0295
:100570008E2328E131E011F02EE131E08091780204
:100580008E23B1F588E191E01F92EF937F936F93F3
:100590005F934F933F932F939F938F939F928F924D
:1005A000FF92EF920E949E04C7010E94C8010FB6FD
:1005B000F894DEBF0FBECDBFCE14DF0409F0C3CF69
:1005C00082EA91E00E94C80183ED91E00E940C0153
:1005D000892BD1F383ED91E00E94EA00D5011D92B1
:1005E0005D01CA16DB06D1F790E080E0272D4BCFE6
:1005F00081E291E0C9CF1F920F920FB60F921124A2
:100600002F933F938F939F93AF93BF938091CF018D
:100610009091D001A091D101B091D2013091CE0141
:1006200023E0230F2D3758F50196A11DB11D20930E
:10063000CE018093CF019093D001A093D101B093CC
:10064000D2018091CA019091CB01A091CC01B091CF
:10065000CD010196A11DB11D8093CA019093CB01DC
:10066000A093CC01B093CD01BF91AF919F918F9199
:100670003F912F910F900FBE0F901F90189526E875
:10068000230F0296A11DB11DD2CF1F920F920FB65C
:100690000F9211242F933F934F935F936F937F9308
:1006A0008F939F93AF93BF93EF93FF9383ED91E06D
:1006B0000E942C01FF91EF91BF91AF919F918F917B
:1006C0007F916F915F914F913F912F910F900FBE4E
:1006D0000F901F9018951F920F920FB60F92112432
:1006E0002F938F939F93EF93FF93E091E301F0910A
:1006F000E4018081E091E901F091EA0182FD1BC0F3
:1007000090818091EC018F5F8F732091ED018217B2
:1007100041F0E091EC01F0E0ED52FE4F958F8093B7
:10072000EC01FF91EF919F918F912F910F900FBE50
:100730000F901F9018958081F4CFE3EDF1E01382C4
:10074000128288EE93E0A0E0B0E084839583A683D4
:10075000B78384E091E09183808385EC90E0958776
:10076000848784EC90E09787868780EC90E0918B7B
:10077000808B81EC90E0938B828B82EC90E0958B68
:10078000848B86EC90E0978B868B118E128E138E65
:10079000148EE0E7F2E0118210828FEF82830895D9
:1007A000789484B5826084BD84B5816084BD85B54C
:1007B000826085BD85B5816085BDEEE6F0E0808113
:1007C00081608083E1E8F0E0108280818260808334
:1007D000808181608083E0E8F0E0808181608083B7
:1007E000E1EBF0E0808184608083E0EBF0E08081E9
:1007F00081608083EAE7F0E080818460808380818B
:100800008260808380818160808380818068808332
:100810001092C100E3EDF1E0A089B18982E0F82EE9
:10082000FC92A485B5851C92A685B78510E11C9322
:10083000108EA489B58986E08C93A289B3898C91A6
:1008400080618C93A289B3898C9188608C93A289F2
:10085000B3898C9180688C930288F389E02D808124
:100860008F7D8083C0E7D2E087E08C8708E00E8729
:1008700089E08D8760E083E00E947D0060E082E097
:100880000E947D0060E084E00E947D0060E085E0E1
:100890000E947D0061E087E00E947D0061E089E0C8
:1008A0000E947D0061E088E00E947D0083E08C83EF
:1008B00084E08D83FE8295E09F83088719878A876D
:1008C00080E28B878CE38B8388E18F8788E3888B3A
:1008D00088E2898B8CE28A8B84E28B8B84E38C8B1D
:1008E00084E18D8B8CE18E8B0E942002A1E21A2E76
:1008F000AA1BBB1BFD010DC0AA1FBB1FEE1FFF1FC4
:10090000A217B307E407F50720F0A21BB30BE40B13
:10091000F50B661F771F881F991F1A9469F760955A
:100920007095809590959B01AC01BD01CF01089514
:10093000EE0FFF1F0590F491E02D0994AEE0B0E0BA
:10094000E4EAF4E00C944D070D891E8986E08C835F
:100950001A8309838FEF9FE79E838D83AE01475EE5
:100960005F4F6F89788DCE0101960E94C1042F815F
:100970003885020F131FF80110822E96E4E00C94C4
:100980006907ABE0B0E0E7ECF4E00C943F077C01D2
:100990003B018A01FC0117821682838181FFC8C155
:1009A000CE0101965C01F7019381F30193FD8591DE
:1009B00093FF81913F01882309F453C1853239F4B3
:1009C00093FD859193FF81913F01853229F4B70111
:1009D00090E00E94B106E7CF912C212C312CFFE151
:1009E000F31538F08B3211F190F4803209F1833233
:1009F00029F137FC3CC020ED280F2A3050F536FE97
:100A000020C08AE0989E200D1124922E06C08D32BF
:100A100091F0803371F7689430F8F30193FD85917C
:100A200093FF81913F018111DACF21C0689431F8A1
:100A3000689432F8F2CF689433F8EFCF689434F8C2
:100A4000ECCFEAE02E9E200D1124222E689435F87A
:100A5000E4CF8E3229F436FC04C1689436F8DDCF39
:100A60008C3619F4689437F8D8CF8836B1F2982FBD
:100A70009F7D95549330E0F08336A1F18337C1F127
:100A8000833509F063C02801F2E04F0E511CF801D4
:100A9000C080D180692D70E036FC02C06FEF7FEF1F
:100AA000C6010E949B064C01689437F882010AC077
:100AB0000C5F1F4FFFE3F98388248394912C650119
:100AC000E89437F833FE2DC0522C8114910471F54F
:100AD000552009F468CFB70180E290E00E94B1068A
:100AE0005A94F6CFF801808189830E5F1F4FE4CFBF
:100AF0002801F2E04F0E511CF801C080D180692D11
:100B000070E036FC02C06FEF7FEFC6010E94A606C0
:100B10004C018201D5CFB70180E290E00E94B1067E
:100B20002A942814190409F0B0F7CECFF60137FC47
:100B3000859137FE81916F01B70190E00E94B10667
:100B400051105A94F1E08F1A9108BFCF843619F0F2
:100B5000893609F077C0F80137FE6BC0608171817A
:100B6000828193810C5F1F4FF32DFF763F2E97FFFD
:100B700009C090958095709561957F4F8F4F9F4FDD
:100B8000689437F82AE030E0A5010E94E106C82EFB
:100B9000CA188C2C432C36FE0CC0E89440F8C914BB
:100BA00040F434FE05C032FC03C0F32DFE7E4F2E10
:100BB000892C44FE95C0FE01EC0DF11D808180332F
:100BC00009F087C0242D297E422E842D8870582E4E
:100BD00043FC95C040FE8FC09C2C821418F42C0C52
:100BE000922C981844FE91C0B70180E390E00E94D7
:100BF000B10642FE09C088E790E041FE02C088E5E8
:100C000090E0B7010E94B106C91408F48AC0CA94E2
:100C1000D12C9FEFC91AD90ACA0CDB1CF6018291AC
:100C20006F01B70190E00E94B106AC14BD04B1F7AA
:100C30004FCF60817181072E000C880B990B0E5FDE
:100C40001F4F92CFD32CE894D4F82AE030E08537B8
:100C500039F1232D297FD22E8F3601F148F48835C2
:100C6000A9F0F701868197812B96E2E10C945B074E
:100C7000803749F08837A9F7D4FE02C06894D2F8CB
:100C800020E130E00DC06894D4F8F6CF34FE03C004
:100C9000822F8660D82E20E132E002C028E030E0CA
:100CA000F801D7FE0FC060817181828193810C5F52
:100CB0001F4FA5010E94E106C82ECA183D2CE894DA
:100CC00037F867CF6081718190E080E00E5F1F4F41
:100CD000F0CF42FC02C0839478CF8394839475CF85
:100CE000842D867809F471CFF6CFB70180E290E0C9
:100CF0000E94B10683948214C0F3512C73CF522CFE
:100D00005818821408F46ECFF8CF842D867809F431
:100D10007BCF8BE241FE80E247FC8DE2B70190E0A1
:100D200071CFB70180E390E00E94B1069A946CCF36
:100D30008FEF9FEF99CFFC0105906150704001103B
:100D4000D8F7809590958E0F9F1F0895FC016150F4
:100D5000704001900110D8F7809590958E0F9F1FDD
:100D600008950F931F93CF93DF93182F092FEB0153
:100D70008B8181FD09C01FEF0FEF812F902FDF9135
:100D8000CF911F910F91089582FF14C02E813F8152
:100D90008C819D81281739073CF4E881F981CF01C6
:100DA00001969983888310838E819F8101969F830A
:100DB0008E83E3CFE885F985812F0995892BA1F3EF
:100DC000DACFFA01AA27283051F1203181F1E894D5
:100DD0006F936E7F6E5F7F4F8F4F9F4FAF4FB1E02E
:100DE0003ED0B4E03CD0670F781F891F9A1FA11D29
:100DF000680F791F8A1F911DA11D6A0F711D811D2A
:100E0000911DA11D20D009F468943F912AE0269FEE
:100E100011243019305D3193DEF6CF010895462F4D
:100E20004770405D4193B3E00FD0C9F7F6CF462F2E
:100E30004F70405D4A3318F0495D31FD4052419397
:100E400002D0A9F7EACFB4E0A69597958795779554
:100E50006795BA95C9F700976105710508959B01DB
:100E6000AC010A2E06945795479537952795BA9564
:100E7000C9F7620F731F841F951FA01D08952F923D
:100E80003F924F925F926F927F928F929F92AF921A
:100E9000BF92CF92DF92EF92FF920F931F93CF9367
:100EA000DF93CDB7DEB7CA1BDB0B0FB6F894DEBFFE
:100EB0000FBECDBF09942A88398848885F846E8424
:100EC0007D848C849B84AA84B984C884DF80EE806E
:100ED000FD800C811B81AA81B981CE0FD11D0FB677
:100EE000F894DEBF0FBECDBFED010895F894FFCF9B
:100EF000000000004E01AE00DB009B010C01EA0087
:100F0000FE000D0A00423200202000413200423132
:100F1000004131004D61736B2073657475703A0048
:100F200041312050696E3A004131204D61736B3A76
:100F30000041322050696E3A004132204D61736B9E
:100F40003A0042312050696E3A004231204D6173BF
:100F50006B3A0042322050696E3A004232204D61B5
:100F6000736B3A00436F696C204D61736B3A0053A9
:100F7000616D706C6573207265636F726465643A4D
:100F800000257320257320257320257320282569CB
:100F90002900507265737320616E79206B6579202A
:100FA000746F20626567696E206E65772073616D6E
:0A0FB000706C65206379636C6500C6
:00000001FF
